{
  "contractName": "MyContract",
  "abi": [
    {
      "anonymous": false,
      "inputs": [
        {
          "indexed": true,
          "internalType": "uint256",
          "name": "id",
          "type": "uint256"
        },
        {
          "indexed": false,
          "internalType": "string",
          "name": "name",
          "type": "string"
        },
        {
          "indexed": false,
          "internalType": "bool",
          "name": "isActive",
          "type": "bool"
        },
        {
          "indexed": false,
          "internalType": "address",
          "name": "userAddr",
          "type": "address"
        }
      ],
      "name": "ItemAdded",
      "type": "event"
    },
    {
      "anonymous": false,
      "inputs": [
        {
          "indexed": true,
          "internalType": "uint256",
          "name": "id",
          "type": "uint256"
        }
      ],
      "name": "ItemRemoved",
      "type": "event"
    },
    {
      "inputs": [
        {
          "internalType": "uint256",
          "name": "",
          "type": "uint256"
        }
      ],
      "name": "items",
      "outputs": [
        {
          "internalType": "uint256",
          "name": "id",
          "type": "uint256"
        },
        {
          "internalType": "string",
          "name": "name",
          "type": "string"
        },
        {
          "internalType": "bool",
          "name": "isActive",
          "type": "bool"
        },
        {
          "internalType": "address",
          "name": "userAddr",
          "type": "address"
        }
      ],
      "stateMutability": "view",
      "type": "function"
    },
    {
      "inputs": [
        {
          "internalType": "uint256",
          "name": "_id",
          "type": "uint256"
        },
        {
          "internalType": "string",
          "name": "_name",
          "type": "string"
        },
        {
          "internalType": "bool",
          "name": "_isActive",
          "type": "bool"
        },
        {
          "internalType": "address",
          "name": "_userAddr",
          "type": "address"
        }
      ],
      "name": "addItem",
      "outputs": [],
      "stateMutability": "nonpayable",
      "type": "function"
    },
    {
      "inputs": [
        {
          "internalType": "uint256",
          "name": "_id",
          "type": "uint256"
        }
      ],
      "name": "removeItem",
      "outputs": [],
      "stateMutability": "nonpayable",
      "type": "function"
    }
  ],
  "bytecode": "0x608060405234801561000f575f80fd5b50610a6d8061001d5f395ff3fe608060405234801561000f575f80fd5b506004361061003f575f3560e01c80632530c01f14610043578063713291711461005f578063bfb231d21461007b575b5f80fd5b61005d60048036038101906100589190610596565b6100ae565b005b61007960048036038101906100749190610616565b6101c0565b005b61009560048036038101906100909190610616565b610252565b6040516100a594939291906106e8565b60405180910390f35b604051806080016040528085815260200184815260200183151581526020018273ffffffffffffffffffffffffffffffffffffffff168152505f808681526020019081526020015f205f820151815f01556020820151816001019081610114919061092c565b506040820151816002015f6101000a81548160ff02191690831515021790555060608201518160020160016101000a81548173ffffffffffffffffffffffffffffffffffffffff021916908373ffffffffffffffffffffffffffffffffffffffff160217905550905050837fb5ddcac4bcab2738ee1711c00f7ac30a467fd64e176b99b2a3588eb67ad5a39b8484846040516101b2939291906109fb565b60405180910390a250505050565b5f808281526020019081526020015f205f8082015f9055600182015f6101e6919061032f565b600282015f6101000a81549060ff02191690556002820160016101000a81549073ffffffffffffffffffffffffffffffffffffffff02191690555050807fa54eda4149a0fb9258911733973ecf1f6762357ed371fc6d1e63123bbce23bed60405160405180910390a250565b5f602052805f5260405f205f91509050805f0154908060010180546102769061075f565b80601f01602080910402602001604051908101604052809291908181526020018280546102a29061075f565b80156102ed5780601f106102c4576101008083540402835291602001916102ed565b820191905f5260205f20905b8154815290600101906020018083116102d057829003601f168201915b505050505090806002015f9054906101000a900460ff16908060020160019054906101000a900473ffffffffffffffffffffffffffffffffffffffff16905084565b50805461033b9061075f565b5f825580601f1061034c5750610369565b601f0160209004905f5260205f2090810190610368919061036c565b5b50565b5b80821115610383575f815f90555060010161036d565b5090565b5f604051905090565b5f80fd5b5f80fd5b5f819050919050565b6103aa81610398565b81146103b4575f80fd5b50565b5f813590506103c5816103a1565b92915050565b5f80fd5b5f80fd5b5f601f19601f8301169050919050565b7f4e487b71000000000000000000000000000000000000000000000000000000005f52604160045260245ffd5b610419826103d3565b810181811067ffffffffffffffff82111715610438576104376103e3565b5b80604052505050565b5f61044a610387565b90506104568282610410565b919050565b5f67ffffffffffffffff821115610475576104746103e3565b5b61047e826103d3565b9050602081019050919050565b828183375f83830152505050565b5f6104ab6104a68461045b565b610441565b9050828152602081018484840111156104c7576104c66103cf565b5b6104d284828561048b565b509392505050565b5f82601f8301126104ee576104ed6103cb565b5b81356104fe848260208601610499565b91505092915050565b5f8115159050919050565b61051b81610507565b8114610525575f80fd5b50565b5f8135905061053681610512565b92915050565b5f73ffffffffffffffffffffffffffffffffffffffff82169050919050565b5f6105658261053c565b9050919050565b6105758161055b565b811461057f575f80fd5b50565b5f813590506105908161056c565b92915050565b5f805f80608085870312156105ae576105ad610390565b5b5f6105bb878288016103b7565b945050602085013567ffffffffffffffff8111156105dc576105db610394565b5b6105e8878288016104da565b93505060406105f987828801610528565b925050606061060a87828801610582565b91505092959194509250565b5f6020828403121561062b5761062a610390565b5b5f610638848285016103b7565b91505092915050565b61064a81610398565b82525050565b5f81519050919050565b5f82825260208201905092915050565b5f5b8381101561068757808201518184015260208101905061066c565b5f8484015250505050565b5f61069c82610650565b6106a6818561065a565b93506106b681856020860161066a565b6106bf816103d3565b840191505092915050565b6106d381610507565b82525050565b6106e28161055b565b82525050565b5f6080820190506106fb5f830187610641565b818103602083015261070d8186610692565b905061071c60408301856106ca565b61072960608301846106d9565b95945050505050565b7f4e487b71000000000000000000000000000000000000000000000000000000005f52602260045260245ffd5b5f600282049050600182168061077657607f821691505b60208210810361078957610788610732565b5b50919050565b5f819050815f5260205f209050919050565b5f6020601f8301049050919050565b5f82821b905092915050565b5f600883026107eb7fffffffffffffffffffffffffffffffffffffffffffffffffffffffffffffffff826107b0565b6107f586836107b0565b95508019841693508086168417925050509392505050565b5f819050919050565b5f61083061082b61082684610398565b61080d565b610398565b9050919050565b5f819050919050565b61084983610816565b61085d61085582610837565b8484546107bc565b825550505050565b5f90565b610871610865565b61087c818484610840565b505050565b5b8181101561089f576108945f82610869565b600181019050610882565b5050565b601f8211156108e4576108b58161078f565b6108be846107a1565b810160208510156108cd578190505b6108e16108d9856107a1565b830182610881565b50505b505050565b5f82821c905092915050565b5f6109045f19846008026108e9565b1980831691505092915050565b5f61091c83836108f5565b9150826002028217905092915050565b61093582610650565b67ffffffffffffffff81111561094e5761094d6103e3565b5b610958825461075f565b6109638282856108a3565b5f60209050601f831160018114610994575f8415610982578287015190505b61098c8582610911565b8655506109f3565b601f1984166109a28661078f565b5f5b828110156109c9578489015182556001820191506020850194506020810190506109a4565b868310156109e657848901516109e2601f8916826108f5565b8355505b6001600288020188555050505b505050505050565b5f6060820190508181035f830152610a138186610692565b9050610a2260208301856106ca565b610a2f60408301846106d9565b94935050505056fea26469706673582212204dada0aca57423927aa82a22785825091138b1b81a5c80a2e4e509f48bd923ab64736f6c63430008170033",
  "immutableReferences": {},
  "source": "// SPDX-License-Identifier: UNLICENSED\npragma solidity ^0.8.0;\n\ncontract MyContract {\n    struct MyStruct {\n        uint256 id;\n        string name;\n        bool isActive;\n        address userAddr;\n    }\n    mapping(uint256 => MyStruct) public items;\n    function addItem(uint256 _id, string memory _name, bool _isActive, address _userAddr) public {\n        items[_id] = MyStruct(_id, _name, _isActive, _userAddr);\n        emit ItemAdded(_id, _name, _isActive, _userAddr);\n    }\n    function removeItem(uint256 _id) public {\n        delete items[_id];\n        emit ItemRemoved(_id);\n    }\n    event ItemAdded(uint256 indexed id, string name, bool isActive, address userAddr);\n    event ItemRemoved(uint256 indexed id);\n}\n",
  "sourcePath": "/Users/aleksejkorolev/WebstormProjects/Blockchain/contracts/MyContract.sol",
  "compiler": {
    "name": "solc",
    "version": "0.8.23+commit.f704f362.Emscripten.clang"
  },
  "schemaVersion": "3.4.16",
  "updatedAt": "2023-11-17T16:38:53.831Z",
  "devdoc": {
    "kind": "dev",
    "methods": {},
    "version": 1
  },
  "userdoc": {
    "kind": "user",
    "methods": {},
    "version": 1
  }
}